:020000040800F2
:1000000098070020350200083D0200083F02000862
:1000100041020008430200084502000800000000F9
:10002000000000000000000000000000470200087F
:1000300049020008000000004B0200084D020008C1
:100040004F0200084F0200084F0200084F0200084C
:100050004F0200084F0200084F0200084F0200083C
:100060004F0200084F0200084F0200084F0200082C
:100070004F0200084F0200084F0200084F0200081C
:100080004F0200084F0200084F0200080000000065
:100090000000000000000000000000004F02000807
:1000A0004F0200084F0200084F0200084F020008EC
:1000B0004F0200084F0200084F0200084F020008DC
:1000C0004F0200084F0200084F0200084F020008CC
:1000D0004F0200084F0200084F0200080000000015
:1000E0004F0200084F0200084F0200080000000005
:1000F0000000000000000000000000004F020008A7
:10010000000000004F0200084F0200084F020008E4
:1001100000000000000000000000000000000000DF
:100120004F0200084F0200084F0200084F0200086B
:100130004F02000800000000000000000000000066
:100140000000000000000000000000004F02000856
:100150004F0200084F0200084F0200084F0200083B
:100160004F0200084F0200080000000000000000DD
:10017000000000000000000000000000000000007F
:10018000000000004F020008000000000000000016
:100190004F02000800F002F800F03CF80AA090E8D6
:1001A000000C82448344AAF10107DA4501D100F032
:1001B00031F8AFF2090EBAE80F0013F0010F18BFC3
:1001C000FB1A43F0010318476C1000008C1000006C
:1001D000103A24BF78C878C1FAD8520724BF30C873
:1001E00030C144BF04680C60704700000023002445
:1001F00000250026103A28BF78C1FBD8520728BF37
:1002000030C148BF0B6070471FB501F005F81FBD36
:1002100010B510BD00F031F81146FFF7F5FF00F002
:1002200013FA00F04FF803B4FFF7F2FF03BC00F03D
:1002300057F800000948804709480047FEE7FEE7F5
:10024000FEE7FEE7FEE7FEE7FEE7FEE7FEE7FEE786
:1002500004480549054A064B704700002D06000872
:1002600095010008980100209807002098030020BD
:1002700098030020704770477047754600F02CF8CF
:10028000AE4605006946534620F00700854618B083
:1002900020B5FFF7DDFFBDE820404FF000064FF02E
:1002A00000074FF000084FF0000BAC46ACE8C00967
:1002B000ACE8C009ACE8C009ACE8C00921F007010E
:1002C0008D46704710B50446AFF300802046BDE868
:1002D0001040FFF7A8BF000000487047180000203A
:1002E00001491820ABBEFEE726000200704700005F
:1002F0000128B8BF704700BF40F67B41013900BFFD
:10030000FCD10138F8DC704710B504280C4605D143
:1003100004202146012200F0A9F810BD214600F07A
:1003200029F90021402C2CBF0020012000F050F8BA
:1003300010BD000070B540F21002C2F20002128837
:1003400040F21846C4F202061204326040F2120271
:10035000C2F20002128801284FEA0242326040F2E3
:100360000802C2F20002128807D11004306040F285
:100370000A00C2F20000008806E040F20A00326083
:10038000C2F200000088000440F284124FF60043DD
:1003900030600020C2F20002CFF6FF7321FA00F4B1
:1003A00032F81050E40700F1010008BF2D040828BE
:1003B000F550F3D140F20C05C2F2000528883060F8
:1003C0000020FFF795FF28880004306070BD000012
:1003D00070B540F21002C2F20002128840F21846D4
:1003E000C4F20206326040F21202C2F20002128827
:1003F00001284FEA0242326040F20802C2F20002D3
:10040000128807D11004306040F20A00C2F20000E6
:10041000008806E040F20A003260C2F20000008864
:10042000000440F284124FF6004330600020C2F214
:100430000002CFF6FF7300BF21FA00F432F810502B
:10044000E40700F1010008BF2D040828F550F3D19E
:1004500040F20C05C2F20005288830600020FFF74A
:1004600047FF28880004306070BD0000402908BFA5
:100470007047B0B514460D4600F07CF800202146C8
:10048000402D38BF0120FFF7A3FFBDE8B040704703
:10049000B0B540F2184440F284124FF600430020F9
:1004A000C4F202040121C2F20002CFF6FF7300BFC2
:1004B00001FA00F522F8105001302D040828E5500B
:1004C000F6D140F21000C2F20000008840F20E05A2
:1004D0000004206040F21200C2F200000088C2F264
:1004E00000050004206028880004206040F20C0011
:1004F000C2F2000000880004206040F20800C2F24E
:10050000000000880004206040F20A00C2F20000EF
:100510000088000420600520FFF7EAFE288820609C
:100520003220FFF7E5FE00203F210024FFF702FF05
:1005300001203F21FFF7FEFE0020C021FFF7FAFE59
:100540000120C021FFF7F6FE05E000BFE0B2013454
:10055000072828BFB0BD002505E000BF681C45B2D4
:10056000B5F1FF3FF2DDE9B24029F7D0E0B2FFF785
:10057000CBFEF3E7B0B54029044604D300200025A4
:10058000FFF7D8FE06E001F14000C1B201200125CD
:10059000FFF7D0FEA4F14800C1B22846FFF7CAFE1B
:1005A000B0BD000043F63000C4F20200016841F023
:1005B00003010160416941F0100141610020C4F272
:1005C00002004FF4EE61416245F25551C4F2280138
:1005D000016045F25551C0F8001441F20C00C4F21C
:1005E000010040F2836140F8041C0C2101600021ED
:1005F00041608160016841F4005101607047000072
:1006000041F20000C4F20100016889060AD440F2F8
:100610008001C2F2000100BF0A6801320A6002686C
:100620009206F9D54068C0B2704700004EF6885077
:10063000CEF20000016841F4700101604FF00061EA
:1006400040F8801C7047000082B0FFF7ABFFFFF757
:100650001FFF9FEDCF0B9FEDD01B40F2041B9FEDC2
:10066000D08B9FEDD39B9FEDD0ABC2F2000B4FF030
:1006700001095AEC100B57EC118B01900BE094ED33
:10068000000B53EC192B51EC100B00F095F941ECD9
:10069000100B84ED000BFFF7B3FF421E332AFAD88C
:1006A000DFE812F03A00E70039003900390039007C
:1006B0003900390039003900390039003900390072
:1006C0003900390039003900390039003900390062
:1006D0003900390039003900390039003900390052
:1006E0003900390039003900390039003900390042
:1006F0003900390039003900390039003900390032
:10070000390039003400CF00D400D90040F2000491
:10071000C2F20004B3E7BEE75E464FF0000B009064
:100720001FE000BF16F80B00012200F0070002FADC
:1007300000F001F00701042C02FA01F112BF084396
:10074000084340F001004FF00109C2B25FFA8BF19B
:100750002046FFF78BFE0BF1010BBBF1800F00F081
:10076000838040F28400C2F2000010F80B0016F8FB
:100770000B40BBF1400F4FEAD00504D05FFA8BF17C
:100780002846FFF7C1FDE408AC4210D116F80B1063
:10079000201FB0FA80F001F00701400909FA01F1C9
:1007A0000843C2B25FFA8BF12046FFF75FFE40F2CA
:1007B0000000C2F2000090ED00BBFFF721FF00F047
:1007C0002CFB019A534600F09FF942463B4600F04D
:1007D00037FB02460B4651EC1B0B00F031FB024687
:1007E00040F27800C2F2000090ED000B0B4651EC95
:1007F000100B00F0E1F842463B4600F085F953EC5F
:10080000182B00F01DFB00F0D9FA3F28A3D8C0F147
:100810003F01C8B240F28402B4EBD00FC2F2000232
:1008200002F80B103FF47EAF01F00701C00809FA8F
:1008300001F2042808BF42F001025FFA8BF1D2B244
:1008400087E740F20004C2F2000408E040F27804B6
:10085000C2F2000413E740F27804C2F2000494EDFF
:10086000000B53EC1A2B0EE70098B34602287FF4D6
:1008700012AF00261FE000BF40F28400C2F2000069
:10088000805D012200F0070002FA00F001F007018C
:10089000042C02FA01F112BF0843084340F00100A2
:1008A0004FF00109C2B2F1B22046FFF7DFFD013679
:1008B000802E3FF4F0AE40F284011BF80600C2F235
:1008C00000018C5D402E4FEAD00503D0F1B22846DE
:1008D000FFF71AFDE408AC4212D140F28401C2F2E3
:1008E0000001895D201FB0FA80F001F00701400986
:1008F00009FA01F10843C2B2F1B22046FFF7B6FD92
:1009000040F20000C2F2000090ED00BBFFF778FE5D
:1009100000F083FA019A534600F0F6F842463B464F
:1009200000F08EFA02460B4651EC1B0B00F088FAE1
:10093000024640F27800C2F2000090ED000B0B4638
:1009400051EC100B00F038F842463B4600F0DCF862
:1009500053EC182B00F074FA00F030FA3F28A6D8B8
:10096000C0F13F01C8B2B4EBD00F0BF806103FF452
:1009700083AF01F00701C00809FA01F2042808BF9B
:1009800042F00102F1B2D2B28FE700BF00BF00BF58
:100990000000000000E06F406666666666660A401A
:1009A00000000000000050409A9999999999C9BF98
:1009B0009A9999999999C93F10B591EA030F48BF3F
:1009C00083F0004300F14283841A71EB030C05D2DB
:1009D000121943EB0C03001B61EB0C014FEA11549D
:1009E000A4EB135CDFF81CE11EEA430F18BF9EEA7C
:1009F000445F00F0748021EA045123EA0E0343F4BB
:100A00008013DCF1200E32D322FA0CFE10EB0E0024
:100A100023FA0CFE41EB0E01CCF1200E03FA0EFE80
:100A200010EB0E00CCF1200E51F10001B1F5801F4A
:100A300032D201EB045112FA0EF2BDE8104058BF59
:100A40007047401C38BF5FEA420218BF7047002859
:100A500014BF20F0010041F100014FEA410313F5FA
:100A6000001F38BF7047A1F1C04100F0E1BA012A70
:100A700043EB0302ACF1200CDCF11F0E32BF4FF050
:100A8000000E23FA0CF310EB030041EB0451B4EB1E
:100A9000115FD0D0A1EB045101F58011490801EBA1
:100AA00004515FEA30000ED350F1000038BF12FA53
:100AB0000EFE08D1BDE81040C9E7401C38BF5FEA10
:100AC0004202CAD1C3E7BDE810404FEA410313F523
:100AD000001F38BF7047A1F1C04100F0A9BA9EEADB
:100AE000445F08D011EA5E0FBDE8104004BF01F07A
:100AF000004100207047BDE8104070B500F04AFA90
:100B000064FBBE3E0000E0FF2DE9C04130B4DFF8D9
:100B1000A4C23CEA111418BF3CEA131400F0ED80A3
:100B20001CEA111481EA030544EAD57418BF1CEAD3
:100B3000131500F0C880A4EB050404F17F7404F5DC
:100B400000344FF0004545EAC12145EAC32341EA9C
:100B5000505143EA52534FEAC0204FEAC222994211
:100B600008BF904200F09D804FEA13650FF24416D3
:100B7000765D4FEA134506FB05F7C7F1807706FB64
:100B800007F74FEAD737A7FB03687642A7FB06CEE5
:100B9000C8F5803838BFA8F1010807FB08E6A6FBB6
:100BA000028C4FF0000EE6FB03CEDCF1000CCEF120
:100BB000004E38BFAEF1010EA6FB0C584FF00007F7
:100BC000E6FB0E87A1FB08C6A0FB07CE16EB0E06C0
:100BD0004FF0000545F10005E1FB076515F1E04E1A
:100BE0007EBFA4F580345FEA46066D4116F18007AA
:100BF00045F100054FEA172747EA05674FEA152533
:100C00004FEA0666A6F1DE46B6F1805F20D9384687
:100C100005EBC47124F0010C01EB0C11BCF1FE6F6B
:100C200002D8F0BCBDE8008124425CBF01F5801E03
:100C30009EEAC47F02D4F0BCBDE80081244200F1EA
:100C40003980A1F1C041F0BCBDE8004100F0F0B92D
:100C50004FEAD02040EA41504FEAD1214FEAD22258
:100C600042EA43524FEAD323A7FB028607FB0366FF
:100C700005FB02661EEA0E0F58BFA6EB0056B6EB48
:100C800000564FEA520E4EEAC37E18EB0E0E56EB9C
:100C9000530EBCD518EB02085E417F1C55F10005D0
:100CA000B5E74FF480154FF000074FF000064FF006
:100CB0000008ACE701F1C04101F000414FF0000035
:100CC000F0BCBDE800810CEA131511EA0C1F00D03E
:100CD0000CE013EA0C1F00F026804FF0000081EAC0
:100CE000030101F00041F0BCBDE80081F0BCBDE8AB
:100CF000004181EA030100F09BB9F0BCBDE800416E
:100D000070B500F047F900BF097EFC3E00F007B85F
:100D10004FF0000081EA030101F00041704781EAD1
:100D2000030100F085B9F0BCBDE8004122494FF055
:100D300000007047FFFDFBF9F7F5F4F2F0EEEDEB84
:100D4000E9E8E6E4E3E1E0DEDDDBDAD8D7D5D4D3C9
:100D5000D1D0CFCDCCCBCAC8C7C6C5C4C2C1C0BF15
:100D6000BEBDBCBBBAB9B8B7B6B5B4B3B2B1B0AF1B
:100D7000AEADACABAAA9A8A8A7A6A5A4A3A3A2A1FF
:100D8000A09F9F9E9D9C9C9B9A99999897979695BA
:100D900095949393929191908F8F8E8E8D8C8C8B56
:100DA0008B8A8989888887878685858484838382DE
:100DB000828181800000FF070000F87F4FEA410335
:100DC0004FEA5353A3F58063D3F11E03C8BFD3F199
:100DD000210C0CDD4FF0004242EAC12242EA50529F
:100DE00032FA03FC8CEAE17CACEBE1707047102B2B
:100DF000C4BF0020704703F5787CBCF1FF3F04D0EE
:100E00006FF0004282EA2100704770B500F0C2F82E
:100E10004992248000207047F2E7B0FA80F310FA7C
:100E200003F10AD0C3F11D0303F580634FEA0352B7
:100E30004FEA415002EBD12170474FF0000070475C
:100E400070B5DFF848C11CEA111E1EBF1CEA13155D
:100E50009EEA0C0F95EA0C0F00F06F8081EA030404
:100E60004EEAD47EAE4421EA4C1123EA4C1341F4FD
:100E7000801143F48013AEF17F7EA1FB024CA0FBF6
:100E80000365361955EB0C05A1FB034C4CF100032F
:100E9000A0FB021C16EB0C06654153F1000309424E
:100EA00018BF46F0010613F4007F0BD14FEA03315F
:100EB0004FEA053041EA155140EA165034036FF00D
:100EC00003020AE04FEAC3214FEAC52041EA555127
:100ED00040EA5650F4026FF0020202EB2E4201EBA0
:100EE000025585EACE710AD05FEA440C18BF24F09F
:100EF000004450F1000041F1000120EAD47040F2BA
:100F0000FE7C624500D270BDA84214BF4FF0804401
:100F10004FF04044002E08BF0024BEF1806FA8BFF0
:100F2000A1F1C041BDE8704080F2828001F1C04172
:100F300001F000414FF0000070470CEA13159EEAE3
:100F40000C0F18BF95EA0C0F06D081EA030E4FF084
:100F500000000EF0004170BD00F01CF88900013E59
:100F600000F007B800F009B84FEA430C5FEA5C5C98
:100F700008D081EA030100F05BB84FEA410C5FEA58
:100F80005C5CF6D102494FF0000070470000FF079B
:100F90000000F87F0EF1020E2EF0030E5EF8046BD7
:100FA000364205D4012A43EB030515F5001F12D87C
:100FB000012841EB010C1CF5001F0CD80ED14FEAA3
:100FC000D17C0CEB4C0C0CF1020C15F5001F08BF8A
:100FD0004CEBD37C04E04FF0080C01E04FEAD37CEB
:100FE0000CEB4C0526FA05F606F00706B6F1040CE4
:100FF00006D20EEB860CBDE870404CF0010C604749
:10100000DFE80CF0090B02024FF00041A1F50021CE
:101010004FF0000070BD19461046012851EB010445
:1010200018BFD4F5001484BF002001F0004170BD4A
:101030000808A0F500114FEA3101704710B591EA98
:10104000030F48BF83F000433FF5BEAC841A71EB39
:10105000030C07D28CF0004C121943EB0C03001B5D
:1010600061EB0C014FEA1154A4EB135CDFF8A4E12F
:101070001EEA430F18BF9EEA445F00F0B48021EAE5
:10108000045123EA6E035242C3EB6E0338BF5B1E6A
:10109000DCF1200E25D322FA0CFE10EB0E0043FAF1
:1010A0000CFE41EB0E01CCF1200E03FA0EFE10EB0C
:1010B0000E00CCF1200E51F1000129D401EB0451B6
:1010C00012FA0EF2BDE8104058BF7047401C1CBF1A
:1010D000B2F1004F704700280CBF491C20F00100FE
:1010E000704712EB020E43EB030218BF4FF0010EE4
:1010F0004EEA4202ACF1200CDCF11E0E56D943FA46
:101100000CFE10EB0E00CCF11E0E51F1FF31D5D5C7
:101110000EF1010E12FA0EFE404141EB010101EB0E
:10112000445C5FEA5C5C10D901EB045110EBDE70AB
:1011300038BFBEF1004FBDE8104018BF704700280F
:101140000CBF491C20F00100704734D24FEAD42C68
:1011500024F4006411F500111BD0B1FA81F20B3AAE
:10116000A41AA41ED2F12003914030FA03F31943CC
:10117000904001EBCC7101EB0451002CBDE8104014
:10118000A8BF704701F1C04101F000414FF00000DD
:101190007047B0FA80F310FA03F102D1BDE81040B5
:1011A0007047E41A173C4805C90AE2E701EB04510D
:1011B000BDE81040704749104FEA300001EB045180
:1011C000BDE8104002E04FF0000170474A0008BF40
:1011D0000042F8D0B2F5001F28BF704701F000416F
:1011E0004FF0000070479EEA445F07D011EA5E0F9F
:1011F000BDE8104004BF002100207047BDE810404A
:1012000070B5FFF7C7FE00BF40DFF63E104683F023
:10121000004170470000E0FFF1EE100A4FF6FF7149
:10122000C0F2C03120EA010040F04070E1EE100A47
:10123000704700005812000800000020180000004D
:10124000D00100087012000818000020800700007C
:10125000EC01000800000000000000000000F03F6A
:101260000400080040008000100020000000000082
:040000050800019559
:00000001FF
