:020000040800F2
:1000000078070020550200085D0200085F02000822
:100010006102000863020008650200080000000099
:10002000000000000000000000000000670200085F
:1000300069020008000000006B0200086D02000861
:100040006F0200086F0200086F0200086F020008CC
:100050006F0200086F0200086F0200086F020008BC
:100060006F0200086F0200086F0200086F020008AC
:100070006F0200086F0200086F0200086F0200089C
:100080006F0200086F0200086F0200080000000005
:100090000000000000000000000000006F020008E7
:1000A0006F0200086F0200086F0200086F0200086C
:1000B0000D1000086F0200086F0200086F020008B0
:1000C0006F0200086F0200086F0200086F0200084C
:1000D0006F0200086F0200086F02000800000000B5
:1000E0006F0200086F0200086F02000800000000A5
:1000F0000000000000000000000000006F02000887
:10010000000000006F020008B91000086F0200082C
:1001100000000000000000000000000000000000DF
:100120006F0200086F0200086F0200086F020008EB
:100130006F02000800000000000000000000000046
:100140000000000000000000000000006F02000836
:100150006F0200086F0200086F0200086F020008BB
:100160006F0200086F02000800000000000000009D
:10017000000000000000000000000000000000007F
:10018000000000006F0200080000000000000000F6
:100190006F02000800F002F800F04CF80AA090E8A6
:1001A000000C82448344AAF10107DA4501D100F032
:1001B00041F8AFF2090EBAE80F0013F0010F18BFB3
:1001C000FB1A43F001031847CC1C0000EC1C000094
:1001D000103A24BF78C878C1FAD8520724BF30C873
:1001E00030C144BF04680C60704700000023002445
:1001F00000250026103A28BF78C1FBD8520728BF37
:1002000030C148BF0B607047662901F0F285642950
:1002100000F05480002070471FB501F0DDFD00F0B4
:1002200099FB04000020002101F0D6FBE0601FBD17
:1002300010B510BD00F08EFC1146FFF7EDFF00F089
:100240007FFF00F0ACFC03B4FFF7F2FF03BC00F04B
:10025000EDFC00000948804709480047FEE7FEE73B
:10026000FEE7FEE7FEE7FEE7FEE7FEE7FEE7FEE766
:1002700004480549054A064B70470000F10F000885
:1002800095010008780100207807002078030020FD
:10029000780300200FB41CB5074B06AA7B446946BF
:1002A0000090059800F03DFB0020694600F04CFBF3
:1002B0001CBC5DF814FB0000A90600002DE9F0410C
:1002C0000646002410687529314616A510D0AFF3F4
:1002D0000080002802DA404213A507E031688A074F
:1002E00001D512A502E0490704D511A5012401E0BA
:1002F000AFF3008000210A2206F1240709E0B0FBD9
:10030000F2FCB0FBF2F302FB1C00303078541846CC
:10031000491C0028F3D123462A463046BDE8F04167
:1003200000F092B8000000002D0000002B0000003B
:10033000200000002DE9F0474FF0000A89460446EE
:10034000C0F820A02046E1688847002876D02528FC
:1003500006D0D4E901219047206A401C2062F1E7D1
:10036000E168204600258847C4F81CA006460027FF
:10037000C4F818A02A2E09D0304601F025FB38B366
:1003800004EB8708303EC8F8186019E059F8041BE0
:10039000204604EB87029161E1688847012F0646F9
:1003A00018D1E069002820DA25F020051DE0D8F8F2
:1003B000180000EB800006EB40003038C8F8180049
:1003C0002046E1688847064601F0FEFA0028EED193
:1003D000012F0AD02E2E08D12046E16888477F1CC5
:1003E0000646022F45F02005C4DBA069002803DA89
:1003F000404245F00105A061E80701D025F0100555
:10040000B6B1A6F14100192802D8203645F400659E
:100410004A463146204625604D46FFF7F5FE58B165
:10042000012806D0ED1D25F0070000F1080989E735
:1004300004E005F1040985E730468AE7206ABDE853
:10044000F0877047704770472DE9F0470D46994691
:100450009246044600F124080168880604D5E06944
:1004600021F01001216000E00120A84201DD471BBE
:1004700000E00027A1697A1902EB0900081AA061BF
:100480002078C00602D42046AFF30080002608E0A2
:10049000D4E901211AF806009047206A401C761C16
:1004A00020624E45F4DB2078C0060AD52046AFF323
:1004B000008006E0D4E9012130209047206A401CEA
:1004C0002062381EA7F10107F4DC07E0D4E901211E
:1004D00018F805009047206A401C2062281EA5F1EC
:1004E0000105F3DC2046AFF300802078000602D53A
:1004F0000220BDE8F0870120FBE72DE9FF4F0C4605
:100500001E464FF0FF378BB0D2E90001DDF8608066
:100510000A908A46C1F30A5505B93D4600210846AE
:100520004FF00000BAF1000F00F4400005DA00EBD4
:1005300080004FF4400101EA50004FEA9059B9F1B0
:10054000010F00DDB9460A9850EA4A000ED044F681
:100550001050A5F2FF3545432F14B8F1000F1ED0FF
:100560007542291E1EDDC9F100021CE0B8F1010F21
:100570004FF0000001D0302103E0F24305E02154A8
:10058000401CB042FBDB30460022002121540B9975
:10059000C1F80880C1E900200FB0BDE8F08FBD1B95
:1005A0006D1CDEE74A4600DA694206A800F05CFAF4
:1005B00006AB93E8070003AB83E8070050460A99AF
:1005C00000F022FE8DE80700A0F500501F380090D3
:1005D0000398002D0ADD42F21F014A460844002319
:1005E00003A90390684601F08BF809E0A0F50050DC
:1005F0004A461F38002303A90390684601F095F886
:100600008DE807000004000C03D04FF0FF304108D4
:1006100000E01046B8F1000F03D00022009215460A
:100620001EE0751E05D400F099F9303262556D1E3A
:10063000F9D5B3460122084302D000227F1C04E012
:100640002078302801D100227F1E002A099784D00B
:100650001DE0112D07DA00F081F9303262556D1C72
:1006600050EA0102F5D1084302D00098C8B10EE06B
:100670000021681E05E0235C625C63542254401E26
:10068000491C8142F7DBAB46A81B401E09900020A5
:1006900004F80B000B98099AC0F80880C0E9002BF9
:1006A0007AE711264FF0000857E72DE9F04F88460A
:1006B0000446D21D22F0070191B0D1E90001CDE935
:1006C0000A0101F069F902460B98C00F01D02D20F4
:1006D00007E02068810701D52B2002E0202101EAF4
:1006E000C000032A099001D0072A05DB03464146D2
:1006F000204600F079F90BE12078800601D5E06909
:1007000000E00620B8F1650F814606D0B8F1660F0B
:1007100018D0B8F1670F70D131E00020B9F1110F96
:10072000009001DB112301E009F101030AAA01A9EC
:100730000CA8FFF7E2FEDDE90C70002609F10105C7
:10074000834647E001204B4600904FF000470AAA3D
:1007500001A90CA8FFF7D1FEDDE90DB00C995D46AB
:10076000002610B909F101000D18B9EB050003D4FA
:10077000C0F1FF3609F10105A5EB09002BE0B9F145
:10078000010F01DA4FF001090020B9F1110F0090BB
:10079000484601DD112300E003460AAA01A90CA87E
:1007A000FFF7ABFEDDE90C704D460026834620784E
:1007B00000070AD4AB4500DA5D4601A8012D04DD2F
:1007C000411911F8011C302907D04F4502DA17F101
:1007D000040F04DA012082460FE06D1EEEE7002FC1
:1007E00002DCED1B3E4403E0781CA84200DD7D1CCA
:1007F000B81B00F1010A4FF000472078000703D42E
:10080000AA4501DB4FF0FF3A0021B7F1004F0DF18F
:1008100043088DF8431024D002202B23002F01DA47
:100820007F422D230A21021EA0F1010000DC5FB1EE
:1008300097FBF1FC97FBF1F201FB1C7C17460CF1D6
:10084000300C08F801CDEEE7A8F101000370218813
:10085000090501D5452100E06521A0F1010800F856
:10086000011C09980FA9A1EB0807FF1D00B1012089
:10087000411901EBEA70A1693844081A401EA061D1
:100880002078C00602D42046AFF30080099828B132
:10089000D4E901219047206A401C20622078C006DC
:1008A00022D52046AFF300801EE0002E04DBB345C6
:1008B00002DD01A8805D00E03020D4E901219047ED
:1008C000206A401C2062761CAAF101005FEA000A3F
:1008D0000AD100F03FF8C0680168405CD4E901210A
:1008E0009047206A401C2062281EA5F10105DCDC2F
:1008F00007E0D4E9012118F8010B9047206A401C59
:100900002062381EA7F10107F3DC2046AFF3008018
:10091000032011B041E6000001694A1C0261087819
:10092000704700B58FB0CDE901310021059105492F
:100930007944CDE9031011466846FFF7FBFC0FB080
:1009400000BD0000E5FFFFFF0A6802F8010B0A6026
:1009500070470000004870472800002030B5B0F113
:100960000A0271F100034FEA900E4EEA817EB0EB6D
:100970000E0061EB91014FEA101E4EEA017E10EB72
:100980000E0041EB11114FEA102E4EEA016E10EBF2
:100990000E0041EB11214FEA104E4EEA014E10EBD2
:1009A0000E0041EB1141401841F100014FEAD00027
:1009B00040EA41704FEAD1014FEA810444EA907461
:1009C00010EB800544EB01046D1944EB0404521B49
:1009D000A3414FF0000348BF0A3200D530BD401C90
:1009E00041F1000130BD00002DE9F0411F460446F1
:1009F00003260168072A01F4006004DB08B116A58C
:100A000005E016A503E008B115A500E015A521F045
:100A100010002060A069C01EA0610FB1401EA0613F
:100A20002046AFF300804FB1D4E90121384690470A
:100A3000206A401C2062C01C206206E0206AFAE79F
:100A4000D4E9012115F8010B9047761EF8D2204613
:100A5000AFF30080BDE8F0814E414E006E616E0044
:100A6000494E4600696E66002DE9F04781461646FC
:100A70008AB0354878440DC88DE80D003248784476
:100A8000801C03AC0DC884E80D0041F69B3008447F
:100A9000372190FBF1F290FBF1F5A5F1800501FB08
:100AA00012041B3C02D56442012000E00020DFF864
:100AB00098A080460027FA44AAF1BE0A0EE0E0079B
:100AC0000AD03246684607EB470101230AEB810151
:100AD00000F02BFE8DE8070064107F1C002CEED187
:100AE000194F7F44AE3F19E0E80715D007EB04101B
:100AF0000DF1180A90E80E008AE80E00C068F04276
:100B000001D1981908903246012306A903A800F0E4
:100B10000CFE03AB83E807006D10641C002DE3D1CD
:100B20004FF0010332466946B8F1000F03A802D026
:100B300000F0E6FD01E000F0F8FDC9E90001C9F8A8
:100B400008200AB0BDE8F087FC1300000048704799
:100B5000080000207546FFF7F9FFAE46050069461C
:100B6000534620F00700854618B020B5FFF780FBFC
:100B7000BDE820404FF000064FF000074FF000089E
:100B80004FF0000BAC46ACE8C009ACE8C009ACE8DB
:100B9000C009ACE8C00921F007018D46704710B5C7
:100BA0000446AFF300802046BDE81040FFF74BBB82
:100BB00030B44FF0013C50F8042B51F8043BCCFA10
:100BC00052F4D51A20D1FCB950F8042B51F8043B4B
:100BD000CCFA52F4D51A17D1B4B950F8042B51F805
:100BE000043BCCFA52F4D51A0ED16CB950F8042B50
:100BF00051F8043BCCFA52F4D51A05D1002CDAD0C6
:100C000030BC4FF00000704729BAB1FA81F111F001
:100C10001801D1F120008440F2D1CA40CB4012F03B
:100C2000FF0213F0FF0330BCD01A704701491820AF
:100C3000ABBEFEE726000200704700000128B8BFE7
:100C4000704700BF40F67B41013900BFFCD101383D
:100C5000F8DC704710B502E00021044611B34FF4F0
:100C60008070012100F020F820B10128F4D100218A
:100C70002A24F3E74FF40070022100F015F820B1A8
:100C80000228E9D100213024E8E74FF480600321F5
:100C900000F00AF820B10328DED100212324DDE78B
:100CA0000121DBE7E0B210BD40F21042C4F20202C3
:100CB0005060106810F4704014D000BF136813F433
:100CC000704FFBD1A0F580500322B2EB103F0CD047
:100CD000000B01280CD0002802BF3031C8B2704789
:100CE000C8B270470021C8B270473631C8B27047E9
:100CF0003331C8B270470000B0B540F21845044621
:100D0000C4F202054FF4C00028608020C5F8FC43FF
:100D100028600020FFF792FF4FF4000028600220B7
:100D2000042C38BF0520FFF789FFB0BD10B540F295
:100D30001844C4F20204202121604FF48001216094
:100D4000C4F8FC03802020600120FFF777FF4FF4F8
:100D5000000020600220FFF771FF10BD80B51E204B
:100D6000FFF76CFF3020FFF7C7FF0A20FFF766FF91
:100D70003020FFF7C1FF0120FFF760FF3020FFF7B1
:100D8000BBFF3820FFF7B8FF0620FFF7B5FF0120B3
:100D9000FFF7B2FF0F20FFF7AFFF80BDB0B586B001
:100DA0006220FFF7C3FF3D20FFF7C0FF40F268005D
:100DB000C2F2000090ED000B41F68C6101AC53ECE7
:100DC000102BC0F600012046FFF764FA002500BF93
:100DD000605DFFF7ABFF122D04D860194078013534
:100DE0000028F5D12020FFF7A1FF5620FFF79EFF36
:100DF0005520FFF79BFF3D20FFF798FF40F20000D2
:100E0000C2F2000090ED000B41F68C6153EC102B08
:100E1000C0F600012046FFF73DFA0025605DFFF7B0
:100E200085FF122D04D86019407801350028F5D1CE
:100E3000C020FFF761FF5420FFF778FF5520FFF730
:100E400075FF2020FFF772FF3D20FFF76FFF202086
:100E5000FFF76CFF2C20C4F2000000680BA1421CBD
:100E60002046FFF717FA0025605DFFF75FFF122DA0
:100E700004D86019407801350028F5D16D20FFF7BE
:100E800055FF7320FFF752FF06B0B0BD2564000088
:100E900010B543F64004C4F2020454F8100C40F2BA
:100EA000004140F0070044F8100C6068C4F20201F1
:100EB00040F0100060604FF62440CFF6FF704FF412
:100EC000EE620A504FF6004040F63C72CFF6FF70DB
:100ED000C0F228020A50606842F2080240F48070B2
:100EE000C4F2010200234FF0010C60601360C2F8ED
:100EF0002CC0506A5062106840F00100106041F24E
:100F00000C00C4F2010040F2836240F8042C0C2271
:100F1000026043608360026842F400520260086825
:100F200020F47C4008604FF4A8400860086840F452
:100F3000A81008604FF60C4040F60001CFF6FF7095
:100F4000C4F202010A5822F480720A5040F20022D0
:100F5000CAF600220A504FF61840CFF6FF704FF441
:100F600040020A5008684FF6FF7290430860086814
:100F700045F255521043086020680F2140F00800E8
:100F8000206040F60C40C4F20000C16113210162F0
:100F9000016841F00101016040F80CCC322000F002
:100FA000BFF8206843F67F6140F0010020600C200C
:100FB000C4F20000C16140F28F110162016841F08A
:100FC000010101604FF08040016841F001010160C2
:100FD0001C2000F0A5F862B610BD000041F200012F
:100FE000C4F201010A681206FCD54860704700008F
:100FF0004EF68850CEF20000016841F470010160A5
:101000004FF0006140F8801C70470000F0B581B0DF
:101010000120FFF7E3FF40F27014C2F2000494F9DC
:10102000000040F270050028C2F200050ED4C0B2E4
:1010300001467F2898BF7F21091A28444E1C471E6D
:1010400017F8010FFFF7CAFF013EF9D1207840B130
:10105000002600BFA85DFFF7C1FF20780136864259
:10106000F8D30220FFF7BAFF94F9000040F2F00530
:101070000028C2F200050FD4C0B201467F2898BFF5
:101080007F21091A28444E1C471E00BF17F8010F84
:10109000FFF7A4FF013EF9D1207840B1002600BF40
:1010A000A85DFFF79BFF207801368642F8D3002029
:1010B000207001B0F0BD000042F20800C4F201004F
:1010C0000121C162016841F08041016050F8081CB3
:1010D0008907FBD5416C40F2701CC2F2000C0B0971
:1010E0009CF8002040F27001C2F200018B540221F2
:1010F000C162016841F08041016000BF50F8081CE6
:101100008907FBD5406C40F2F0010009C2F20001F2
:101110008854B2F17F0018BF501C8CF80000704753
:10112000C1B200F01F00012202FA00F04EF20012DC
:10113000CEF2000242EAD10121F0030108607047BB
:101140002C25C4F20005FFF7A3FEFFF707FE9FED75
:101150002A8B40F200079FED2A9B40F26808C2F2FA
:101160000007C2F2000802E00120FFF7C5FDFFF70B
:1011700015FEFFF76FFD044631380528F4D8B0EEB0
:10118000480A3E46F0EE680ADFE800F01003050B5F
:10119000232C3E4606E0B0EE480A4646F0EE680ACA
:1011A00004E04646B0EE490AF0EE690A96ED001BEF
:1011B00053EC102B51EC110B00F024FC41EC100B04
:1011C000204686ED000BFFF709FF362C0AD0352CA0
:1011D000CAD12868C0087C2802D8286864302860F2
:1011E000362CC1D12868B0F5C87FBDD928686438CD
:1011F0002860B9E700BF00BF9A9999999999C93FAA
:101200009A9999999999C9BF5FEA400C08BF91F0E2
:10121000000F4FEA8C234FEAC12243EA51514FEAB3
:101220001C5018BF00F5F0404FEA300018BF41F0E5
:1012300000415FEA6C5C00F02980BCF1FF3F08BF11
:1012400040F080407047130C06BF12044FF0100CA2
:101250004FF0000C130E04BF12020CF1080C130F18
:1012600004BF12010CF1040C930F04BF92000CF1A7
:10127000020CD30F04BF52000CF1010C11464FF0C9
:101280000002A0F11F00A0EB0C00704711F0004F0E
:1012900008BF704731F000413FF4D5AF0B0C06BFDB
:1012A00009044FF0100C4FF0000C0B0E04BF0902A4
:1012B0000CF1080C0B0F04BF09010CF1040C8B0F8F
:1012C00004BF89000CF1020CCB0F04BF49000CF1E4
:1012D000010CCCF1200322FA03F341EA030102FAE4
:1012E0000CF2A0EB0C0000F10100704723F07F47E7
:1012F00020F07F4C80EA030000F00040ACEB0703D5
:1013000003F57C5303F1FF032DE9804909B44FEA4B
:10131000144324EA03484FEA154B25EA0B4E0FF21B
:10132000042606EB13273E7803FB0667C7F5000784
:1013300007FB06F64FEAD64606F102064FEA543797
:1013400007FB066CCCF1005C4FEA1C472CEA074C0B
:101350000CFB06F507FB06F404EB15464FEA961660
:1013600049085FEA320234BF00204FF000404FEAE4
:10137000D13706FB07FC4FEA1C4C0CFB0BF7D21BCA
:1013800003FB0CF761EB07010CFB0EF7B0EB07401A
:1013900072EB17420CFB08F734BFA2EB0742B2EB2B
:1013A000074261EB17414FEA0C444FEA910706FBF5
:1013B00007FC4FEA1C4C0CFB0BF7B0EBC74072EB81
:1013C000573203FB0CF734BFA2EBC742B2EBC74264
:1013D00061EB57310CFB0EF7B0EBC70072EB5772A5
:1013E0000CFB08F734BFA2EBC702B2EBC70261EBFC
:1013F00057714FEA816141EA92114FEA826242EAF3
:1014000090124FEA806004EBCC04039F4FEAD1377F
:1014100006FB07FC4FEA1C4C0CFB0BF7D21B03FB33
:101420000CF761EB07010CFB0EF7B0EB074072EB1A
:1014300017420CFB08F734BFA2EB0742B2EB07429E
:1014400061EB17414FEA8C5504EB9C244FEA91075E
:1014500006FB07FC4FEA1C4C0CFB0BF7B0EBC7403C
:1014600072EB573203FB0CF734BFA2EBC742B2EB6F
:10147000C74261EB57310CFB0EF7B0EBC70072EBC4
:1014800057720CFB08F734BFA2EBC702B2EBC702DE
:1014900061EB57714FEA816141EA92114FEA826232
:1014A00042EA90124FEA806015EB4C2544F10004AB
:1014B0004FEAD13706FB07FC4FEA1C4C0CFB0BF73D
:1014C000D21B03FB0CF761EB07010CFB0EF7B0EB33
:1014D000074072EB17420CFB08F734BFA2EB074240
:1014E000B2EB074261EB17414FEA813141EA924189
:1014F0004FEA823242EA90424FEA80304FEA0C765D
:1015000015EB1C1544F1000448EA03434EEA0B486E
:101510004FF0000EB2EB080C71EB030724BF6246DC
:1015200039464EEB0E0E4FF0000B00185241494168
:101530004BEB0B0BB2EB080C71EB03077BF1000BD1
:1015400024BF624639464EEB0E0E4FF0000B0018DA
:10155000524149414BEB0B0BB2EB080C71EB03070B
:101560007BF1000B24BF624639464EEB0E0E51EA6A
:10157000020718BF46F0010616EB0E7655F1000281
:1015800054F1000103D5BDE88901BDE80088BDE83C
:101590008901BDE80048B619524141EB0101A3F1B0
:1015A0000103704780807F7E7D7C7B7A79787776B7
:1015B00076757473727171706F6E6E6D6C6C6B6A30
:1015C0006A696868676666656464636362616160CE
:1015D000605F5F5E5E5D5D5C5C5B5B5A5A5959584B
:1015E00058575756565555555454535352525251B5
:1015F000515050504F4F4F4E4E4D4D4D4C4C4C4B0B
:101600004B4B4A4A4A494949484848474747474651
:10161000464645454544444444434343434242428D
:10162000424141419C46002B30D477002BD04FEAF9
:1016300037071CB503B44FF010004FF01001BAF19A
:10164000000F06D0BCF1000FDCBF40F0080040F0F6
:1016500008014FF000000FBCBDE810400BF1010B7A
:10166000BBF1010F08BF5FEA170722BF12F10102A9
:1016700011F101014FF0004143F1000300F000407F
:1016800043EA00007047F9D35708D0E746EA064618
:101690004FEA164613F1400F1FDD13F1200FDFBF95
:1016A00016430A46002120335B42BED0C3F1200717
:1016B00046EA06464FEA164602FA07F746EA0706E2
:1016C00022FA03F2C3F1200701FA07F742EA070200
:1016D00021FA03F14FF00003A7E746EA020646EAC3
:1016E00006464FEA164646EA0106BCBF46EA0646EB
:1016F000360C4FF000034FF000024FF0000194E76A
:101700002DE9804C70B49A46934691E8380007C89A
:1017100031EA400C48BF34EA430C03D5FFF7E6FD3D
:10172000FFF780FFF0BCBDE8008C2DE9804C70B461
:101730009A46934691E8380007C810F0804F08BFDA
:1017400013F0804F03D100F005F8FFF76BFFF0BCFA
:10175000BDE8008C20F07F4723F07F4C80EA030037
:1017600000F0004007EB0C03A3F57C53A3F1FE034C
:1017700092F0000F00F0B38095F0000F00F077803A
:101780002DE901494FEA114021EA00484FEA144689
:1017900024EA064700FB06FC08FB06F607FB08F8F0
:1017A00018EB06484CEB164C00FB07F718EB074804
:1017B0004CEB17404FEA124B22EA0B4E4FEA15460C
:1017C00025EA06470BFB06FC0EFB06F607FB0EFEA2
:1017D0001EEB064E4CEB164C0BFB07F71EEB074EB1
:1017E0004CEB174B18EB0B0840F1000018EB0E0BFD
:1017F00058EB000840F100008F1A4FF000014FF045
:1018000000063CBFC943661B14BFB5EB040C0021A6
:101810003CBFC943F61B4FEA174427EA04454FEA89
:101820001C472CEA074C04FB076205FB07F70CFB7F
:1018300005F616EB074642EB174204FB0CFC16EBD1
:101840000C4642EB1C421BEB060658EB02024141E0
:101850004EEA8E0E46EA9E0601D5BDE80189B6190C
:10186000524141EB0101A3F10103BDE801894FEAB7
:10187000144524EA05464FEA114721EA074C05FBC7
:1018800007F406FB07F70CFB06F111EB074144EBED
:10189000174405FB0CFC11EB0C4144EB1C444FEAD4
:1018A000124722EA074C05FB07F206FB07F70CFB81
:1018B00006F616EB074642EB174205FB0CFC16EB4F
:1018C0000C4642EB1C456A1854F1000148BF7047B2
:1018D000B619524141EB0101A3F10103704795F0A4
:1018E000000F37D04FEA114221EA02464FEA14476F
:1018F00024EA074C02FB07F106FB07F70CFB06F492
:1019000014EB074441EB174102FB0CFC14EB0C44B5
:1019100041EB1C414FEA154725EA074C02FB07F54E
:1019200006FB07F70CFB06F616EB074645EB1745DB
:1019300002FB0CFC16EB0C4645EB1C42121951F154
:10194000000148BF7047B619524141EB0101A3F1B4
:10195000010370474FEA144524EA05464FEA114750
:1019600021EA074C05FB07F106FB07F70CFB06F223
:1019700012EB074241EB174105FB0CFC12EB0C424A
:1019800051EB1C414FF0000648BF7047921841EBE5
:101990000101A3F10103704703B4019841000098CD
:1019A00050EAC12018BF04204A0D18BF40F00100C2
:1019B00040F2FF72B2EB515F08BF40F00200012815
:1019C00008BF052002B0704730380A2801D2012034
:1019D000704700207047000010B500290AD0087831
:1019E000002807D005487844FFF7E2F8002801D026
:1019F000002010BD0248784410BD0000CE04000055
:101A0000C604000010B591EA030F48BF83F00043FD
:101A100000F1FC80841A71EB030C05D2121943EB20
:101A20000C03001B61EB0C014FEA1154A4EB135C97
:101A3000DFF81CE11EEA430F18BF9EEA445F00F086
:101A4000748021EA045123EA0E0343F48013DCF18D
:101A5000200E32D322FA0CFE10EB0E0023FA0CFEFD
:101A600041EB0E01CCF1200E03FA0EFE10EB0E003E
:101A7000CCF1200E51F10001B1F5801F32D201EB03
:101A8000045112FA0EF2BDE8104058BF7047401CD6
:101A900038BF5FEA420218BF7047002814BF20F029
:101AA000010041F100014FEA410313F5001F38BF67
:101AB0007047A1F1C04100F09BB8012A43EB03023B
:101AC000ACF1200CDCF11F0E32BF4FF0000E23FAF8
:101AD0000CF310EB030041EB0451B4EB115FD0D0D9
:101AE000A1EB045101F58011490801EB04515FEAB3
:101AF00030000ED350F1000038BF12FA0EFE08D1AC
:101B0000BDE81040C9E7401C38BF5FEA4202CAD1B5
:101B1000C3E7BDE810404FEA410313F5001F38BF8B
:101B20007047A1F1C04100F063B89EEA445F08D05D
:101B300011EA5E0FBDE8104004BF01F00041002033
:101B40007047BDE8104070B500F004F864FBBE3E7D
:101B50000000E0FF0EF1020E2EF0030E5EF8046BA3
:101B6000364205D4012A43EB030515F5001F12D8B0
:101B7000012841EB010C1CF5001F0CD80ED14FEAD7
:101B8000D17C0CEB4C0C0CF1020C15F5001F08BFBE
:101B90004CEBD37C04E04FF0080C01E04FEAD37C1F
:101BA0000CEB4C0526FA05F606F00706B6F1040C18
:101BB00006D20EEB860CBDE870404CF0010C60477D
:101BC000DFE80CF0090B02024FF00041A1F5002103
:101BD0004FF0000070BD19461046012851EB01047A
:101BE00018BFD4F5001484BF002001F0004170BD7F
:101BF0000808A0F500114FEA3101704710B591EACD
:101C0000030F48BF83F000433FF504AF841A71EB24
:101C1000030C07D28CF0004C121943EB0C03001B91
:101C200061EB0C014FEA1154A4EB135CDFF8A4E163
:101C30001EEA430F18BF9EEA445F00F0B48021EA19
:101C4000045123EA6E035242C3EB6E0338BF5B1E9E
:101C5000DCF1200E25D322FA0CFE10EB0E0043FA25
:101C60000CFE41EB0E01CCF1200E03FA0EFE10EB40
:101C70000E00CCF1200E51F1000129D401EB0451EA
:101C800012FA0EF2BDE8104058BF7047401C1CBF4E
:101C9000B2F1004F704700280CBF491C20F0010032
:101CA000704712EB020E43EB030218BF4FF0010E18
:101CB0004EEA4202ACF1200CDCF11E0E56D943FA7A
:101CC0000CFE10EB0E00CCF11E0E51F1FF31D5D5FC
:101CD0000EF1010E12FA0EFE404141EB010101EB43
:101CE000445C5FEA5C5C10D901EB045110EBDE70E0
:101CF00038BFBEF1004FBDE8104018BF7047002844
:101D00000CBF491C20F00100704734D24FEAD42C9C
:101D100024F4006411F500111BD0B1FA81F20B3AE2
:101D2000A41AA41ED2F12003914030FA03F3194300
:101D3000904001EBCC7101EB0451002CBDE8104048
:101D4000A8BF704701F1C04101F000414FF0000011
:101D50007047B0FA80F310FA03F102D1BDE81040E9
:101D60007047E41A173C4805C90AE2E701EB045141
:101D7000BDE81040704749104FEA300001EB0451B4
:101D8000BDE8104002E04FF0000170474A0008BF74
:101D90000042F8D0B2F5001F28BF704701F00041A3
:101DA0004FF0000070479EEA445F07D011EA5E0FD3
:101DB000BDE8104004BF002100207047BDE810407E
:101DC00070B5FFF7C7FE00BF40DFF63E104683F058
:101DD000004170470000E0FFF1EE100A4FF6FF717E
:101DE000C0F2C03120EA010040F04070E1EE100A7C
:101DF0007047FEF75ABC000002400000000000A03F
:101E00000000000005400000000000C800000000C5
:101E10000C4000000000409C000000001940000041
:101E20000020BCBE0000000034400000BFC91B8E73
:101E300000000004B5400000504BCFD06607E2CF51
:101E4000010000006C4100003E8251AADFEEA73481
:101E500001000000D9420000DCB5A0E23A301F9733
:101E6000FFFFFFFFB4450000FD25A0C8E9A3C14F57
:101E7000FFFFFFFFFF3F00000000008000000000A8
:101E8000FF3F00000000008000000000252E3166AA
:101E900000000000D01E0008000000200800000024
:101EA000D0010008D81E00080800002070070000BC
:101EB000EC0100081C00000043000000F8FFFFFFD9
:101EC0000C0000000E0000000F0000002E000000BB
:081ED000000000000000F03FDB
:040000050800019559
:00000001FF
